{
  "contractName": "lendingBorrowing",
  "abi": [
    {
      "anonymous": false,
      "inputs": [
        {
          "indexed": false,
          "internalType": "address",
          "name": "_memberAddress",
          "type": "address"
        }
      ],
      "name": "LogAddedCandidateToGroup",
      "type": "event"
    },
    {
      "anonymous": false,
      "inputs": [
        {
          "indexed": false,
          "internalType": "address",
          "name": "_approverAddress",
          "type": "address"
        },
        {
          "indexed": false,
          "internalType": "uint256",
          "name": "approvalCount",
          "type": "uint256"
        }
      ],
      "name": "LogApprovedRequest",
      "type": "event"
    },
    {
      "anonymous": false,
      "inputs": [
        {
          "indexed": false,
          "internalType": "address",
          "name": "_memberAddress",
          "type": "address"
        },
        {
          "indexed": false,
          "internalType": "uint256",
          "name": "amountBorrowed",
          "type": "uint256"
        },
        {
          "indexed": false,
          "internalType": "uint256",
          "name": "groupBalance",
          "type": "uint256"
        }
      ],
      "name": "LogBorrowingTransaction",
      "type": "event"
    },
    {
      "anonymous": false,
      "inputs": [
        {
          "indexed": false,
          "internalType": "string",
          "name": "_groupId",
          "type": "string"
        },
        {
          "indexed": false,
          "internalType": "uint256",
          "name": "numberOfMember",
          "type": "uint256"
        },
        {
          "indexed": false,
          "internalType": "address",
          "name": "_creator",
          "type": "address"
        }
      ],
      "name": "LogCreatedGroup",
      "type": "event"
    },
    {
      "anonymous": false,
      "inputs": [
        {
          "indexed": false,
          "internalType": "string",
          "name": "_groupId",
          "type": "string"
        },
        {
          "indexed": false,
          "internalType": "string",
          "name": "_nameSurname",
          "type": "string"
        },
        {
          "indexed": false,
          "internalType": "address",
          "name": "_participantAddress",
          "type": "address"
        }
      ],
      "name": "LogCreatedRequest",
      "type": "event"
    },
    {
      "anonymous": false,
      "inputs": [
        {
          "indexed": false,
          "internalType": "address",
          "name": "_memberAddress",
          "type": "address"
        },
        {
          "indexed": false,
          "internalType": "uint256",
          "name": "amountLended",
          "type": "uint256"
        },
        {
          "indexed": false,
          "internalType": "uint256",
          "name": "groupBalance",
          "type": "uint256"
        }
      ],
      "name": "LogLendingTransaction",
      "type": "event"
    },
    {
      "anonymous": false,
      "inputs": [
        {
          "indexed": false,
          "internalType": "address",
          "name": "_memberAddress",
          "type": "address"
        },
        {
          "indexed": false,
          "internalType": "uint256",
          "name": "amountPayedBack",
          "type": "uint256"
        },
        {
          "indexed": false,
          "internalType": "uint256",
          "name": "remainDebt",
          "type": "uint256"
        },
        {
          "indexed": false,
          "internalType": "uint256",
          "name": "groupBalance",
          "type": "uint256"
        }
      ],
      "name": "LogPayDebtedBack",
      "type": "event"
    },
    {
      "anonymous": false,
      "inputs": [
        {
          "indexed": false,
          "internalType": "address",
          "name": "_memberAddress",
          "type": "address"
        },
        {
          "indexed": false,
          "internalType": "uint256",
          "name": "withdrawedAmount",
          "type": "uint256"
        },
        {
          "indexed": false,
          "internalType": "uint256",
          "name": "groupBalance",
          "type": "uint256"
        }
      ],
      "name": "LogWithdraw",
      "type": "event"
    },
    {
      "constant": true,
      "inputs": [],
      "name": "compoundAddress",
      "outputs": [
        {
          "internalType": "address payable",
          "name": "",
          "type": "address"
        }
      ],
      "payable": false,
      "stateMutability": "view",
      "type": "function"
    },
    {
      "constant": true,
      "inputs": [
        {
          "internalType": "string",
          "name": "",
          "type": "string"
        }
      ],
      "name": "groups",
      "outputs": [
        {
          "internalType": "string",
          "name": "groupId",
          "type": "string"
        },
        {
          "internalType": "address",
          "name": "creator",
          "type": "address"
        },
        {
          "internalType": "uint256",
          "name": "groupBalance",
          "type": "uint256"
        },
        {
          "internalType": "bool",
          "name": "isOpen",
          "type": "bool"
        },
        {
          "internalType": "uint256",
          "name": "numberOfMember",
          "type": "uint256"
        },
        {
          "internalType": "uint256",
          "name": "requestCount",
          "type": "uint256"
        }
      ],
      "payable": false,
      "stateMutability": "view",
      "type": "function"
    },
    {
      "constant": true,
      "inputs": [
        {
          "internalType": "address",
          "name": "",
          "type": "address"
        }
      ],
      "name": "participants",
      "outputs": [
        {
          "internalType": "string",
          "name": "groupNo",
          "type": "string"
        },
        {
          "internalType": "address",
          "name": "memberAddress",
          "type": "address"
        },
        {
          "internalType": "string",
          "name": "nameSurname",
          "type": "string"
        }
      ],
      "payable": false,
      "stateMutability": "view",
      "type": "function"
    },
    {
      "constant": false,
      "inputs": [
        {
          "internalType": "string",
          "name": "_groupId",
          "type": "string"
        },
        {
          "internalType": "string",
          "name": "nameSurname",
          "type": "string"
        }
      ],
      "name": "createGroup",
      "outputs": [],
      "payable": false,
      "stateMutability": "nonpayable",
      "type": "function"
    },
    {
      "constant": false,
      "inputs": [
        {
          "internalType": "string",
          "name": "_groupId",
          "type": "string"
        }
      ],
      "name": "leaveGroup",
      "outputs": [],
      "payable": false,
      "stateMutability": "nonpayable",
      "type": "function"
    },
    {
      "constant": false,
      "inputs": [
        {
          "internalType": "string",
          "name": "_groupId",
          "type": "string"
        },
        {
          "internalType": "string",
          "name": "_nameSurname",
          "type": "string"
        }
      ],
      "name": "enroll",
      "outputs": [],
      "payable": false,
      "stateMutability": "nonpayable",
      "type": "function"
    },
    {
      "constant": false,
      "inputs": [
        {
          "internalType": "address",
          "name": "_candidateAddress",
          "type": "address"
        },
        {
          "internalType": "string",
          "name": "_groupId",
          "type": "string"
        },
        {
          "internalType": "uint256",
          "name": "_id",
          "type": "uint256"
        }
      ],
      "name": "approveRequest",
      "outputs": [],
      "payable": false,
      "stateMutability": "nonpayable",
      "type": "function"
    },
    {
      "constant": false,
      "inputs": [
        {
          "internalType": "string",
          "name": "_groupId",
          "type": "string"
        }
      ],
      "name": "lending",
      "outputs": [],
      "payable": true,
      "stateMutability": "payable",
      "type": "function"
    },
    {
      "constant": false,
      "inputs": [
        {
          "internalType": "string",
          "name": "_groupId",
          "type": "string"
        }
      ],
      "name": "borrowing",
      "outputs": [],
      "payable": true,
      "stateMutability": "payable",
      "type": "function"
    },
    {
      "constant": false,
      "inputs": [
        {
          "internalType": "string",
          "name": "_groupId",
          "type": "string"
        }
      ],
      "name": "payDebtBack",
      "outputs": [
        {
          "internalType": "uint256",
          "name": "",
          "type": "uint256"
        }
      ],
      "payable": true,
      "stateMutability": "payable",
      "type": "function"
    },
    {
      "constant": false,
      "inputs": [
        {
          "internalType": "string",
          "name": "_groupId",
          "type": "string"
        }
      ],
      "name": "withdraw",
      "outputs": [
        {
          "internalType": "uint256",
          "name": "",
          "type": "uint256"
        }
      ],
      "payable": true,
      "stateMutability": "payable",
      "type": "function"
    },
    {
      "constant": true,
      "inputs": [
        {
          "internalType": "string",
          "name": "_groupId",
          "type": "string"
        }
      ],
      "name": "checkParticipant",
      "outputs": [
        {
          "internalType": "bool",
          "name": "",
          "type": "bool"
        }
      ],
      "payable": false,
      "stateMutability": "view",
      "type": "function"
    },
    {
      "constant": true,
      "inputs": [
        {
          "internalType": "string",
          "name": "_groupId",
          "type": "string"
        }
      ],
      "name": "checkGroupBalance",
      "outputs": [
        {
          "internalType": "uint256",
          "name": "",
          "type": "uint256"
        }
      ],
      "payable": false,
      "stateMutability": "view",
      "type": "function"
    },
    {
      "constant": true,
      "inputs": [
        {
          "internalType": "string",
          "name": "_groupId",
          "type": "string"
        }
      ],
      "name": "checkGroup",
      "outputs": [
        {
          "internalType": "string",
          "name": "",
          "type": "string"
        }
      ],
      "payable": false,
      "stateMutability": "view",
      "type": "function"
    },
    {
      "constant": true,
      "inputs": [
        {
          "internalType": "string",
          "name": "_groupId",
          "type": "string"
        }
      ],
      "name": "checkMemberDebtStatus",
      "outputs": [
        {
          "internalType": "uint256",
          "name": "",
          "type": "uint256"
        },
        {
          "internalType": "uint256",
          "name": "",
          "type": "uint256"
        }
      ],
      "payable": false,
      "stateMutability": "view",
      "type": "function"
    },
    {
      "constant": true,
      "inputs": [
        {
          "internalType": "string",
          "name": "_groupId",
          "type": "string"
        },
        {
          "internalType": "uint256",
          "name": "_id",
          "type": "uint256"
        }
      ],
      "name": "getRequest",
      "outputs": [
        {
          "internalType": "string",
          "name": "",
          "type": "string"
        },
        {
          "internalType": "address",
          "name": "",
          "type": "address"
        },
        {
          "internalType": "enum lendingBorrowing.RequestState",
          "name": "",
          "type": "uint8"
        },
        {
          "internalType": "uint256",
          "name": "",
          "type": "uint256"
        }
      ],
      "payable": false,
      "stateMutability": "view",
      "type": "function"
    },
    {
      "constant": true,
      "inputs": [
        {
          "internalType": "string",
          "name": "_groupId",
          "type": "string"
        }
      ],
      "name": "getRequestArrayLength",
      "outputs": [
        {
          "internalType": "uint256",
          "name": "",
          "type": "uint256"
        }
      ],
      "payable": false,
      "stateMutability": "view",
      "type": "function"
    }
  ],
  "bytecode": "0x608060405273877427ccbd3061affd5c6518bc87799b9cf3c408600460006101000a81548173ffffffffffffffffffffffffffffffffffffffff021916908373ffffffffffffffffffffffffffffffffffffffff16021790555034801561006557600080fd5b5061572f80620000766000396000f3fe6080604052600436106100fe5760003560e01c80636b52230b1161009557806395bec3951161006457806395bec39514610d66578063b25ed5a314610ec5578063bfc0071414610f8d578063c7cd80e714610fe4578063cf05ed421461109f576100fe565b80636b52230b146109375780636d2224a214610acb5780636fb591c514610bae57806375d7571214610c8a576100fe565b806331fb67c2116100d157806331fb67c2146105785780633db7484b14610647578063400b6fdb1461078857806350f67e7f14610857576100fe565b806309e69ede1461010357806319153dd91461026c5780631e4a97dd146103275780632ff72fa014610486575b600080fd5b34801561010f57600080fd5b506101526004803603602081101561012657600080fd5b81019080803573ffffffffffffffffffffffffffffffffffffffff169060200190929190505050611239565b60405180806020018473ffffffffffffffffffffffffffffffffffffffff1673ffffffffffffffffffffffffffffffffffffffff16815260200180602001838103835286818151815260200191508051906020019080838360005b838110156101c85780820151818401526020810190506101ad565b50505050905090810190601f1680156101f55780820380516001836020036101000a031916815260200191505b50838103825284818151815260200191508051906020019080838360005b8381101561022e578082015181840152602081019050610213565b50505050905090810190601f16801561025b5780820380516001836020036101000a031916815260200191505b509550505050505060405180910390f35b6103256004803603602081101561028257600080fd5b810190808035906020019064010000000081111561029f57600080fd5b8201836020820111156102b157600080fd5b803590602001918460018302840111640100000000831117156102d357600080fd5b91908080601f016020809104026020016040519081016040528093929190818152602001838380828437600081840152601f19601f8201169050808301925050505050505091929192905050506113b3565b005b34801561033357600080fd5b506104846004803603604081101561034a57600080fd5b810190808035906020019064010000000081111561036757600080fd5b82018360208201111561037957600080fd5b8035906020019184600183028401116401000000008311171561039b57600080fd5b91908080601f016020809104026020016040519081016040528093929190818152602001838380828437600081840152601f19601f820116905080830192505050505050509192919290803590602001906401000000008111156103fe57600080fd5b82018360208201111561041057600080fd5b8035906020019184600183028401116401000000008311171561043257600080fd5b91908080601f016020809104026020016040519081016040528093929190818152602001838380828437600081840152601f19601f820116905080830192505050505050509192919290505050611864565b005b34801561049257600080fd5b50610576600480360360608110156104a957600080fd5b81019080803573ffffffffffffffffffffffffffffffffffffffff169060200190929190803590602001906401000000008111156104e657600080fd5b8201836020820111156104f857600080fd5b8035906020019184600183028401116401000000008311171561051a57600080fd5b91908080601f016020809104026020016040519081016040528093929190818152602001838380828437600081840152601f19601f82011690508083019250505050505050919291929080359060200190929190505050611e3e565b005b6106316004803603602081101561058e57600080fd5b81019080803590602001906401000000008111156105ab57600080fd5b8201836020820111156105bd57600080fd5b803590602001918460018302840111640100000000831117156105df57600080fd5b91908080601f016020809104026020016040519081016040528093929190818152602001838380828437600081840152601f19601f82011690508083019250505050505050919291929050505061230f565b6040518082815260200191505060405180910390f35b34801561065357600080fd5b5061070d6004803603602081101561066a57600080fd5b810190808035906020019064010000000081111561068757600080fd5b82018360208201111561069957600080fd5b803590602001918460018302840111640100000000831117156106bb57600080fd5b91908080601f016020809104026020016040519081016040528093929190818152602001838380828437600081840152601f19601f820116905080830192505050505050509192919290505050612ac4565b6040518080602001828103825283818151815260200191508051906020019080838360005b8381101561074d578082015181840152602081019050610732565b50505050905090810190601f16801561077a5780820380516001836020036101000a031916815260200191505b509250505060405180910390f35b6108416004803603602081101561079e57600080fd5b81019080803590602001906401000000008111156107bb57600080fd5b8201836020820111156107cd57600080fd5b803590602001918460018302840111640100000000831117156107ef57600080fd5b91908080601f016020809104026020016040519081016040528093929190818152602001838380828437600081840152601f19601f820116905080830192505050505050509192919290505050612bd2565b6040518082815260200191505060405180910390f35b34801561086357600080fd5b5061091d6004803603602081101561087a57600080fd5b810190808035906020019064010000000081111561089757600080fd5b8201836020820111156108a957600080fd5b803590602001918460018302840111640100000000831117156108cb57600080fd5b91908080601f016020809104026020016040519081016040528093929190818152602001838380828437600081840152601f19601f820116905080830192505050505050509192919290505050613424565b604051808215151515815260200191505060405180910390f35b34801561094357600080fd5b506109fd6004803603602081101561095a57600080fd5b810190808035906020019064010000000081111561097757600080fd5b82018360208201111561098957600080fd5b803590602001918460018302840111640100000000831117156109ab57600080fd5b91908080601f016020809104026020016040519081016040528093929190818152602001838380828437600081840152601f19601f8201169050808301925050505050505091929192905050506135d9565b60405180806020018773ffffffffffffffffffffffffffffffffffffffff1673ffffffffffffffffffffffffffffffffffffffff16815260200186815260200185151515158152602001848152602001838152602001828103825288818151815260200191508051906020019080838360005b83811015610a8b578082015181840152602081019050610a70565b50505050905090810190601f168015610ab85780820380516001836020036101000a031916815260200191505b5097505050505050505060405180910390f35b348015610ad757600080fd5b50610b9160048036036020811015610aee57600080fd5b8101908080359060200190640100000000811115610b0b57600080fd5b820183602082011115610b1d57600080fd5b80359060200191846001830284011164010000000083111715610b3f57600080fd5b91908080601f016020809104026020016040519081016040528093929190818152602001838380828437600081840152601f19601f8201169050808301925050505050505091929192905050506136f0565b604051808381526020018281526020019250505060405180910390f35b348015610bba57600080fd5b50610c7460048036036020811015610bd157600080fd5b8101908080359060200190640100000000811115610bee57600080fd5b820183602082011115610c0057600080fd5b80359060200191846001830284011164010000000083111715610c2257600080fd5b91908080601f016020809104026020016040519081016040528093929190818152602001838380828437600081840152601f19601f820116905080830192505050505050509192919290505050613945565b6040518082815260200191505060405180910390f35b348015610c9657600080fd5b50610d5060048036036020811015610cad57600080fd5b8101908080359060200190640100000000811115610cca57600080fd5b820183602082011115610cdc57600080fd5b80359060200191846001830284011164010000000083111715610cfe57600080fd5b91908080601f016020809104026020016040519081016040528093929190818152602001838380828437600081840152601f19601f8201169050808301925050505050505091929192905050506139ba565b6040518082815260200191505060405180910390f35b348015610d7257600080fd5b50610ec360048036036040811015610d8957600080fd5b8101908080359060200190640100000000811115610da657600080fd5b820183602082011115610db857600080fd5b80359060200191846001830284011164010000000083111715610dda57600080fd5b91908080601f016020809104026020016040519081016040528093929190818152602001838380828437600081840152601f19601f82011690508083019250505050505050919291929080359060200190640100000000811115610e3d57600080fd5b820183602082011115610e4f57600080fd5b80359060200191846001830284011164010000000083111715610e7157600080fd5b91908080601f016020809104026020016040519081016040528093929190818152602001838380828437600081840152601f19601f820116905080830192505050505050509192919290505050613b25565b005b348015610ed157600080fd5b50610f8b60048036036020811015610ee857600080fd5b8101908080359060200190640100000000811115610f0557600080fd5b820183602082011115610f1757600080fd5b80359060200191846001830284011164010000000083111715610f3957600080fd5b91908080601f016020809104026020016040519081016040528093929190818152602001838380828437600081840152601f19601f8201169050808301925050505050505091929192905050506141ba565b005b348015610f9957600080fd5b50610fa2614723565b604051808273ffffffffffffffffffffffffffffffffffffffff1673ffffffffffffffffffffffffffffffffffffffff16815260200191505060405180910390f35b61109d60048036036020811015610ffa57600080fd5b810190808035906020019064010000000081111561101757600080fd5b82018360208201111561102957600080fd5b8035906020019184600183028401116401000000008311171561104b57600080fd5b91908080601f016020809104026020016040519081016040528093929190818152602001838380828437600081840152601f19601f820116905080830192505050505050509192919290505050614749565b005b3480156110ab57600080fd5b5061116f600480360360408110156110c257600080fd5b81019080803590602001906401000000008111156110df57600080fd5b8201836020820111156110f157600080fd5b8035906020019184600183028401116401000000008311171561111357600080fd5b91908080601f016020809104026020016040519081016040528093929190818152602001838380828437600081840152601f19601f82011690508083019250505050505050919291929080359060200190929190505050614cac565b60405180806020018573ffffffffffffffffffffffffffffffffffffffff1673ffffffffffffffffffffffffffffffffffffffff1681526020018460018111156111b557fe5b60ff168152602001838152602001828103825286818151815260200191508051906020019080838360005b838110156111fb5780820151818401526020810190506111e0565b50505050905090810190601f1680156112285780820380516001836020036101000a031916815260200191505b509550505050505060405180910390f35b6003602052806000526040600020600091509050806000018054600181600116156101000203166002900480601f0160208091040260200160405190810160405280929190818152602001828054600181600116156101000203166002900480156112e55780601f106112ba576101008083540402835291602001916112e5565b820191906000526020600020905b8154815290600101906020018083116112c857829003601f168201915b5050505050908060010160009054906101000a900473ffffffffffffffffffffffffffffffffffffffff1690806002018054600181600116156101000203166002900480601f0160208091040260200160405190810160405280929190818152602001828054600181600116156101000203166002900480156113a95780601f1061137e576101008083540402835291602001916113a9565b820191906000526020600020905b81548152906001019060200180831161138c57829003601f168201915b5050505050905083565b80600115156002826040518082805190602001908083835b602083106113ee57805182526020820191506020810190506020830392506113cb565b6001836020036101000a038019825116818451168082178552505050505050905001915050908152602001604051809103902060060160003373ffffffffffffffffffffffffffffffffffffffff1673ffffffffffffffffffffffffffffffffffffffff16815260200190815260200160002060009054906101000a900460ff161515146114e4576040517f08c379a00000000000000000000000000000000000000000000000000000000081526004018080602001828103825260198152602001807f596f7520617265206e6f7420696e20746869732067726f75700000000000000081525060200191505060405180910390fd5b81600115156002826040518082805190602001908083835b6020831061151f57805182526020820191506020810190506020830392506114fc565b6001836020036101000a038019825116818451168082178552505050505050905001915050908152602001604051809103902060030160009054906101000a900460ff161515146115d8576040517f08c379a00000000000000000000000000000000000000000000000000000000081526004018080602001828103825260128152602001807f47726f7570206973206e6f74206578697374000000000000000000000000000081525060200191505060405180910390fd5b600034101561164f576040517f08c379a000000000000000000000000000000000000000000000000000000000815260040180806020018281038252601a8152602001807f506c656173652073656e6420612076616c696420616d6f756e7400000000000081525060200191505060405180910390fd5b346002846040518082805190602001908083835b602083106116865780518252602082019150602081019050602083039250611663565b6001836020036101000a038019825116818451168082178552505050505050905001915050908152602001604051809103902060080160003373ffffffffffffffffffffffffffffffffffffffff1673ffffffffffffffffffffffffffffffffffffffff16815260200190815260200160002060008282540192505081905550346002846040518082805190602001908083835b6020831061173d578051825260208201915060208101905060208303925061171a565b6001836020036101000a0380198251168184511680821785525050505050509050019150509081526020016040518091039020600201600082825401925050819055507f1cc308ba0845fc9dfb2b7c59303c61b3a4c4b54f2758356f654b4962957ae90a33346002866040518082805190602001908083835b602083106117d957805182526020820191506020810190506020830392506117b6565b6001836020036101000a038019825116818451168082178552505050505050905001915050908152602001604051809103902060020154604051808473ffffffffffffffffffffffffffffffffffffffff1673ffffffffffffffffffffffffffffffffffffffff168152602001838152602001828152602001935050505060405180910390a1505050565b6002826040518082805190602001908083835b6020831061189a5780518252602082019150602081019050602083039250611877565b6001836020036101000a038019825116818451168082178552505050505050905001915050908152602001604051809103902060030160009054906101000a900460ff1615611951576040517f08c379a00000000000000000000000000000000000000000000000000000000081526004018080602001828103825260188152602001807f67726f757020697320616c72656164792063726561746564000000000000000081525060200191505060405180910390fd5b611959615585565b6040518060c001604052808481526020013373ffffffffffffffffffffffffffffffffffffffff168152602001600081526020016001151581526020016001815260200160008152509050806002846040518082805190602001908083835b602083106119db57805182526020820191506020810190506020830392506119b8565b6001836020036101000a03801982511681845116808217855250505050505090500191505090815260200160405180910390206000820151816000019080519060200190611a2a9291906155d3565b5060208201518160010160006101000a81548173ffffffffffffffffffffffffffffffffffffffff021916908373ffffffffffffffffffffffffffffffffffffffff1602179055506040820151816002015560608201518160030160006101000a81548160ff0219169083151502179055506080820151816004015560a082015181600501559050507fe6985da533d59f3fb572c1c30f7f445bae4836c26650d232293de633632aba19836002856040518082805190602001908083835b60208310611b0b5780518252602082019150602081019050602083039250611ae8565b6001836020036101000a0380198251168184511680821785525050505050509050019150509081526020016040518091039020600401546002866040518082805190602001908083835b60208310611b785780518252602082019150602081019050602083039250611b55565b6001836020036101000a038019825116818451168082178552505050505050905001915050908152602001604051809103902060010160009054906101000a900473ffffffffffffffffffffffffffffffffffffffff1660405180806020018481526020018373ffffffffffffffffffffffffffffffffffffffff1673ffffffffffffffffffffffffffffffffffffffff168152602001828103825285818151815260200191508051906020019080838360005b83811015611c47578082015181840152602081019050611c2c565b50505050905090810190601f168015611c745780820380516001836020036101000a031916815260200191505b5094505050505060405180910390a160016002846040518082805190602001908083835b60208310611cbb5780518252602082019150602081019050602083039250611c98565b6001836020036101000a038019825116818451168082178552505050505050905001915050908152602001604051809103902060060160003373ffffffffffffffffffffffffffffffffffffffff1673ffffffffffffffffffffffffffffffffffffffff16815260200190815260200160002060006101000a81548160ff02191690831515021790555060405180606001604052808481526020013373ffffffffffffffffffffffffffffffffffffffff16815260200183815250600360003373ffffffffffffffffffffffffffffffffffffffff1673ffffffffffffffffffffffffffffffffffffffff1681526020019081526020016000206000820151816000019080519060200190611dd19291906155d3565b5060208201518160010160006101000a81548173ffffffffffffffffffffffffffffffffffffffff021916908373ffffffffffffffffffffffffffffffffffffffff1602179055506040820151816002019080519060200190611e359291906155d3565b50905050505050565b60006001811115611e4b57fe5b600160008573ffffffffffffffffffffffffffffffffffffffff1673ffffffffffffffffffffffffffffffffffffffff16815260200190815260200160002060060160009054906101000a900460ff166001811115611ea657fe5b14611f19576040517f08c379a00000000000000000000000000000000000000000000000000000000081526004018080602001828103825260138152602001807f52657175657374206973207265736f6c7665640000000000000000000000000081525060200191505060405180910390fd5b6000600160008573ffffffffffffffffffffffffffffffffffffffff1673ffffffffffffffffffffffffffffffffffffffff16815260200190815260200160002090508060050160008573ffffffffffffffffffffffffffffffffffffffff1673ffffffffffffffffffffffffffffffffffffffff16815260200190815260200160002060009054906101000a900460ff1615611fb557600080fd5b600115158160050160003373ffffffffffffffffffffffffffffffffffffffff1673ffffffffffffffffffffffffffffffffffffffff16815260200190815260200160002060009054906101000a905050506001816004016000828254019250508190555060016000846040518082805190602001908083835b60208310612052578051825260208201915060208101905060208303925061202f565b6001836020036101000a0380198251168184511680821785525050505050509050019150509081526020016040518091039020838154811061209057fe5b9060005260206000209060070201600401600082825401925050819055508060040154606460506002866040518082805190602001908083835b602083106120ed57805182526020820191506020810190506020830392506120ca565b6001836020036101000a038019825116818451168082178552505050505050905001915050908152602001604051809103902060040154028161212c57fe5b04101561229a5761213e848484614fa3565b6001816004016000828254019250508190555060018160060160006101000a81548160ff0219169083600181111561217257fe5b021790555060016000846040518082805190602001908083835b602083106121af578051825260208201915060208101905060208303925061218c565b6001836020036101000a038019825116818451168082178552505050505050905001915050908152602001604051809103902083815481106121ed57fe5b906000526020600020906007020160060160006101000a81548160ff0219169083600181111561221957fe5b021790555060016002846040518082805190602001908083835b602083106122565780518252602082019150602081019050602083039250612233565b6001836020036101000a0380198251168184511680821785525050505050509050019150509081526020016040518091039020600501600082825403925050819055505b7f802794574f626c7f2301ce39c790ee6f6dcb9427a466c9bd3d04902f3f2cf1c6338260040154604051808373ffffffffffffffffffffffffffffffffffffffff1673ffffffffffffffffffffffffffffffffffffffff1681526020018281526020019250505060405180910390a150505050565b600081600115156002826040518082805190602001908083835b6020831061234c5780518252602082019150602081019050602083039250612329565b6001836020036101000a038019825116818451168082178552505050505050905001915050908152602001604051809103902060060160003373ffffffffffffffffffffffffffffffffffffffff1673ffffffffffffffffffffffffffffffffffffffff16815260200190815260200160002060009054906101000a900460ff16151514612442576040517f08c379a00000000000000000000000000000000000000000000000000000000081526004018080602001828103825260198152602001807f596f7520617265206e6f7420696e20746869732067726f75700000000000000081525060200191505060405180910390fd5b82600115156002826040518082805190602001908083835b6020831061247d578051825260208201915060208101905060208303925061245a565b6001836020036101000a038019825116818451168082178552505050505050905001915050908152602001604051809103902060030160009054906101000a900460ff16151514612536576040517f08c379a00000000000000000000000000000000000000000000000000000000081526004018080602001828103825260128152602001807f47726f7570206973206e6f74206578697374000000000000000000000000000081525060200191505060405180910390fd5b60006002856040518082805190602001908083835b6020831061256e578051825260208201915060208101905060208303925061254b565b6001836020036101000a038019825116818451168082178552505050505050905001915050908152602001604051809103902060070160003373ffffffffffffffffffffffffffffffffffffffff1673ffffffffffffffffffffffffffffffffffffffff1681526020019081526020016000205490506000811461265a576040517f08c379a000000000000000000000000000000000000000000000000000000000815260040180806020018281038252600d8152602001807f796f75206861766520646562740000000000000000000000000000000000000081525060200191505060405180910390fd5b60006002866040518082805190602001908083835b60208310612692578051825260208201915060208101905060208303925061266f565b6001836020036101000a038019825116818451168082178552505050505050905001915050908152602001604051809103902060080160003373ffffffffffffffffffffffffffffffffffffffff1673ffffffffffffffffffffffffffffffffffffffff168152602001908152602001600020549050600081141561277f576040517f08c379a000000000000000000000000000000000000000000000000000000000815260040180806020018281038252601c8152602001807f596f7520646f206e6f742068617665206c656e646564206d6f6e65790000000081525060200191505060405180910390fd5b346002876040518082805190602001908083835b602083106127b65780518252602082019150602081019050602083039250612793565b6001836020036101000a0380198251168184511680821785525050505050509050019150509081526020016040518091039020600201541015612861576040517f08c379a000000000000000000000000000000000000000000000000000000000815260040180806020018281038252601a8152602001807f5468657265206973206e6f20656e6f7567682062616c616e636500000000000081525060200191505060405180910390fd5b346002876040518082805190602001908083835b602083106128985780518252602082019150602081019050602083039250612875565b6001836020036101000a038019825116818451168082178552505050505050905001915050908152602001604051809103902060080160003373ffffffffffffffffffffffffffffffffffffffff1673ffffffffffffffffffffffffffffffffffffffff16815260200190815260200160002060008282540392505081905550346002876040518082805190602001908083835b6020831061294f578051825260208201915060208101905060208303925061292c565b6001836020036101000a0380198251168184511680821785525050505050509050019150509081526020016040518091039020600201600082825403925050819055503373ffffffffffffffffffffffffffffffffffffffff166108fc349081150290604051600060405180830381858888f193505050501580156129d8573d6000803e3d6000fd5b507fda9a10d7b992511ddadbfc7ff712c1424ce2058bbcdac8c9876d6f8de590d43f33346002896040518082805190602001908083835b60208310612a325780518252602082019150602081019050602083039250612a0f565b6001836020036101000a038019825116818451168082178552505050505050905001915050908152602001604051809103902060020154604051808473ffffffffffffffffffffffffffffffffffffffff1673ffffffffffffffffffffffffffffffffffffffff168152602001838152602001828152602001935050505060405180910390a180945050505050919050565b60606002826040518082805190602001908083835b60208310612afc5780518252602082019150602081019050602083039250612ad9565b6001836020036101000a03801982511681845116808217855250505050505090500191505090815260200160405180910390206000018054600181600116156101000203166002900480601f016020809104026020016040519081016040528092919081815260200182805460018160011615610100020316600290048015612bc65780601f10612b9b57610100808354040283529160200191612bc6565b820191906000526020600020905b815481529060010190602001808311612ba957829003601f168201915b50505050509050919050565b600081600115156002826040518082805190602001908083835b60208310612c0f5780518252602082019150602081019050602083039250612bec565b6001836020036101000a038019825116818451168082178552505050505050905001915050908152602001604051809103902060060160003373ffffffffffffffffffffffffffffffffffffffff1673ffffffffffffffffffffffffffffffffffffffff16815260200190815260200160002060009054906101000a900460ff16151514612d05576040517f08c379a00000000000000000000000000000000000000000000000000000000081526004018080602001828103825260198152602001807f596f7520617265206e6f7420696e20746869732067726f75700000000000000081525060200191505060405180910390fd5b82600115156002826040518082805190602001908083835b60208310612d405780518252602082019150602081019050602083039250612d1d565b6001836020036101000a038019825116818451168082178552505050505050905001915050908152602001604051809103902060030160009054906101000a900460ff16151514612df9576040517f08c379a00000000000000000000000000000000000000000000000000000000081526004018080602001828103825260128152602001807f47726f7570206973206e6f74206578697374000000000000000000000000000081525060200191505060405180910390fd5b60006002856040518082805190602001908083835b60208310612e315780518252602082019150602081019050602083039250612e0e565b6001836020036101000a038019825116818451168082178552505050505050905001915050908152602001604051809103902060070160003373ffffffffffffffffffffffffffffffffffffffff1673ffffffffffffffffffffffffffffffffffffffff1681526020019081526020016000205490506000811415612f1e576040517f08c379a00000000000000000000000000000000000000000000000000000000081526004018080602001828103825260148152602001807f796f7520646f206e6f742068617665206465627400000000000000000000000081525060200191505060405180910390fd5b80341161314b57346002866040518082805190602001908083835b60208310612f5c5780518252602082019150602081019050602083039250612f39565b6001836020036101000a038019825116818451168082178552505050505050905001915050908152602001604051809103902060020160008282540192505081905550346002866040518082805190602001908083835b60208310612fd65780518252602082019150602081019050602083039250612fb3565b6001836020036101000a038019825116818451168082178552505050505050905001915050908152602001604051809103902060070160003373ffffffffffffffffffffffffffffffffffffffff1673ffffffffffffffffffffffffffffffffffffffff1681526020019081526020016000206000828254039250508190555034810390507fa03e6a8cb7de48961fb0d71ac15ee76bf8efa0f99d2b2a4843a2795022ba9ce73334836002896040518082805190602001908083835b602083106130b55780518252602082019150602081019050602083039250613092565b6001836020036101000a038019825116818451168082178552505050505050905001915050908152602001604051809103902060020154604051808573ffffffffffffffffffffffffffffffffffffffff1673ffffffffffffffffffffffffffffffffffffffff16815260200184815260200183815260200182815260200194505050505060405180910390a18093505061341d565b346002866040518082805190602001908083835b60208310613182578051825260208201915060208101905060208303925061315f565b6001836020036101000a03801982511681845116808217855250505050505090500191505090815260200160405180910390206002016000828254019250508190555060006002866040518082805190602001908083835b602083106131fd57805182526020820191506020810190506020830392506131da565b6001836020036101000a038019825116818451168082178552505050505050905001915050908152602001604051809103902060070160003373ffffffffffffffffffffffffffffffffffffffff1673ffffffffffffffffffffffffffffffffffffffff16815260200190815260200160002081905550600090508034036002866040518082805190602001908083835b602083106132b1578051825260208201915060208101905060208303925061328e565b6001836020036101000a038019825116818451168082178552505050505050905001915050908152602001604051809103902060080160003373ffffffffffffffffffffffffffffffffffffffff1673ffffffffffffffffffffffffffffffffffffffff168152602001908152602001600020600082825401925050819055507fa03e6a8cb7de48961fb0d71ac15ee76bf8efa0f99d2b2a4843a2795022ba9ce73334836002896040518082805190602001908083835b6020831061338b5780518252602082019150602081019050602083039250613368565b6001836020036101000a038019825116818451168082178552505050505050905001915050908152602001604051809103902060020154604051808573ffffffffffffffffffffffffffffffffffffffff1673ffffffffffffffffffffffffffffffffffffffff16815260200184815260200183815260200182815260200194505050505060405180910390a1809350505b5050919050565b600081600115156002826040518082805190602001908083835b60208310613461578051825260208201915060208101905060208303925061343e565b6001836020036101000a038019825116818451168082178552505050505050905001915050908152602001604051809103902060030160009054906101000a900460ff1615151461351a576040517f08c379a00000000000000000000000000000000000000000000000000000000081526004018080602001828103825260128152602001807f47726f7570206973206e6f74206578697374000000000000000000000000000081525060200191505060405180910390fd5b6002836040518082805190602001908083835b60208310613550578051825260208201915060208101905060208303925061352d565b6001836020036101000a038019825116818451168082178552505050505050905001915050908152602001604051809103902060060160003373ffffffffffffffffffffffffffffffffffffffff1673ffffffffffffffffffffffffffffffffffffffff16815260200190815260200160002060009054906101000a900460ff16915050919050565b600281805160208101820180518482526020830160208501208183528095505050505050600091509050806000018054600181600116156101000203166002900480601f01602080910402602001604051908101604052809291908181526020018280546001816001161561010002031660029004801561369b5780601f106136705761010080835404028352916020019161369b565b820191906000526020600020905b81548152906001019060200180831161367e57829003601f168201915b5050505050908060010160009054906101000a900473ffffffffffffffffffffffffffffffffffffffff16908060020154908060030160009054906101000a900460ff16908060040154908060050154905086565b60008082600115156002826040518082805190602001908083835b6020831061372e578051825260208201915060208101905060208303925061370b565b6001836020036101000a038019825116818451168082178552505050505050905001915050908152602001604051809103902060030160009054906101000a900460ff161515146137e7576040517f08c379a00000000000000000000000000000000000000000000000000000000081526004018080602001828103825260128152602001807f47726f7570206973206e6f74206578697374000000000000000000000000000081525060200191505060405180910390fd5b6002846040518082805190602001908083835b6020831061381d57805182526020820191506020810190506020830392506137fa565b6001836020036101000a038019825116818451168082178552505050505050905001915050908152602001604051809103902060070160003373ffffffffffffffffffffffffffffffffffffffff1673ffffffffffffffffffffffffffffffffffffffff168152602001908152602001600020546002856040518082805190602001908083835b602083106138c757805182526020820191506020810190506020830392506138a4565b6001836020036101000a038019825116818451168082178552505050505050905001915050908152602001604051809103902060080160003373ffffffffffffffffffffffffffffffffffffffff1673ffffffffffffffffffffffffffffffffffffffff168152602001908152602001600020549250925050915091565b600080826040518082805190602001908083835b6020831061397c5780518252602082019150602081019050602083039250613959565b6001836020036101000a0380198251168184511680821785525050505050509050019150509081526020016040518091039020805490509050919050565b600081600115156002826040518082805190602001908083835b602083106139f757805182526020820191506020810190506020830392506139d4565b6001836020036101000a038019825116818451168082178552505050505050905001915050908152602001604051809103902060030160009054906101000a900460ff16151514613ab0576040517f08c379a00000000000000000000000000000000000000000000000000000000081526004018080602001828103825260128152602001807f47726f7570206973206e6f74206578697374000000000000000000000000000081525060200191505060405180910390fd5b6002836040518082805190602001908083835b60208310613ae65780518252602082019150602081019050602083039250613ac3565b6001836020036101000a038019825116818451168082178552505050505050905001915050908152602001604051809103902060020154915050919050565b81600115156002826040518082805190602001908083835b60208310613b605780518252602082019150602081019050602083039250613b3d565b6001836020036101000a038019825116818451168082178552505050505050905001915050908152602001604051809103902060030160009054906101000a900460ff16151514613c19576040517f08c379a00000000000000000000000000000000000000000000000000000000081526004018080602001828103825260128152602001807f47726f7570206973206e6f74206578697374000000000000000000000000000081525060200191505060405180910390fd5b600115156002846040518082805190602001908083835b60208310613c535780518252602082019150602081019050602083039250613c30565b6001836020036101000a038019825116818451168082178552505050505050905001915050908152602001604051809103902060060160003373ffffffffffffffffffffffffffffffffffffffff1673ffffffffffffffffffffffffffffffffffffffff16815260200190815260200160002060009054906101000a900460ff1615151415613d4a576040517f08c379a000000000000000000000000000000000000000000000000000000000815260040180806020018281038252601d8152602001807f596f752061726520616c726561647920696e20746869732067726f757000000081525060200191505060405180910390fd5b613d52615653565b6040518060c00160405280858152602001848152602001600081526020013373ffffffffffffffffffffffffffffffffffffffff1681526020016000815260200160006001811115613da057fe5b81525090506000846040518082805190602001908083835b60208310613ddb5780518252602082019150602081019050602083039250613db8565b6001836020036101000a038019825116818451168082178552505050505050905001915050908152602001604051809103902081908060018154018082558091505090600182039060005260206000209060070201600090919290919091506000820151816000019080519060200190613e569291906155d3565b506020820151816001019080519060200190613e739291906155d3565b506040820151816002015560608201518160030160006101000a81548173ffffffffffffffffffffffffffffffffffffffff021916908373ffffffffffffffffffffffffffffffffffffffff1602179055506080820151816004015560a08201518160060160006101000a81548160ff02191690836001811115613ef357fe5b021790555050505080600160003373ffffffffffffffffffffffffffffffffffffffff1673ffffffffffffffffffffffffffffffffffffffff1681526020019081526020016000206000820151816000019080519060200190613f579291906155d3565b506020820151816001019080519060200190613f749291906155d3565b506040820151816002015560608201518160030160006101000a81548173ffffffffffffffffffffffffffffffffffffffff021916908373ffffffffffffffffffffffffffffffffffffffff1602179055506080820151816004015560a08201518160060160006101000a81548160ff02191690836001811115613ff457fe5b021790555090505060016002856040518082805190602001908083835b602083106140345780518252602082019150602081019050602083039250614011565b6001836020036101000a0380198251168184511680821785525050505050509050019150509081526020016040518091039020600501600082825401925050819055507fabb03f37ae8c7352058cab765175b6cc2718a473dbfc45776176521ca1e5949c8484336040518080602001806020018473ffffffffffffffffffffffffffffffffffffffff1673ffffffffffffffffffffffffffffffffffffffff168152602001838103835286818151815260200191508051906020019080838360005b838110156141115780820151818401526020810190506140f6565b50505050905090810190601f16801561413e5780820380516001836020036101000a031916815260200191505b50838103825285818151815260200191508051906020019080838360005b8381101561417757808201518184015260208101905061415c565b50505050905090810190601f1680156141a45780820380516001836020036101000a031916815260200191505b509550505050505060405180910390a150505050565b80600115156002826040518082805190602001908083835b602083106141f557805182526020820191506020810190506020830392506141d2565b6001836020036101000a038019825116818451168082178552505050505050905001915050908152602001604051809103902060060160003373ffffffffffffffffffffffffffffffffffffffff1673ffffffffffffffffffffffffffffffffffffffff16815260200190815260200160002060009054906101000a900460ff161515146142eb576040517f08c379a00000000000000000000000000000000000000000000000000000000081526004018080602001828103825260198152602001807f596f7520617265206e6f7420696e20746869732067726f75700000000000000081525060200191505060405180910390fd5b81600115156002826040518082805190602001908083835b602083106143265780518252602082019150602081019050602083039250614303565b6001836020036101000a038019825116818451168082178552505050505050905001915050908152602001604051809103902060030160009054906101000a900460ff161515146143df576040517f08c379a00000000000000000000000000000000000000000000000000000000081526004018080602001828103825260128152602001807f47726f7570206973206e6f74206578697374000000000000000000000000000081525060200191505060405180910390fd5b60006002846040518082805190602001908083835b6020831061441757805182526020820191506020810190506020830392506143f4565b6001836020036101000a038019825116818451168082178552505050505050905001915050908152602001604051809103902060070160003373ffffffffffffffffffffffffffffffffffffffff1673ffffffffffffffffffffffffffffffffffffffff16815260200190815260200160002054146144e1576040517f08c379a000000000000000000000000000000000000000000000000000000000815260040180806020018281038252602b8152602001806156d0602b913960400191505060405180910390fd5b60006002846040518082805190602001908083835b6020831061451957805182526020820191506020810190506020830392506144f6565b6001836020036101000a038019825116818451168082178552505050505050905001915050908152602001604051809103902060060160003373ffffffffffffffffffffffffffffffffffffffff1673ffffffffffffffffffffffffffffffffffffffff16815260200190815260200160002060006101000a81548160ff02191690831515021790555060016002846040518082805190602001908083835b602083106145db57805182526020820191506020810190506020830392506145b8565b6001836020036101000a03801982511681845116808217855250505050505090500191505090815260200160405180910390206004016000828254039250508190555060006002846040518082805190602001908083835b602083106146565780518252602082019150602081019050602083039250614633565b6001836020036101000a038019825116818451168082178552505050505050905001915050908152602001604051809103902060080160003373ffffffffffffffffffffffffffffffffffffffff1673ffffffffffffffffffffffffffffffffffffffff168152602001908152602001600020549050600081111561471d573373ffffffffffffffffffffffffffffffffffffffff166108fc829081150290604051600060405180830381858888f1935050505015801561471b573d6000803e3d6000fd5b505b50505050565b600460009054906101000a900473ffffffffffffffffffffffffffffffffffffffff1681565b80600115156002826040518082805190602001908083835b602083106147845780518252602082019150602081019050602083039250614761565b6001836020036101000a038019825116818451168082178552505050505050905001915050908152602001604051809103902060060160003373ffffffffffffffffffffffffffffffffffffffff1673ffffffffffffffffffffffffffffffffffffffff16815260200190815260200160002060009054906101000a900460ff1615151461487a576040517f08c379a00000000000000000000000000000000000000000000000000000000081526004018080602001828103825260198152602001807f596f7520617265206e6f7420696e20746869732067726f75700000000000000081525060200191505060405180910390fd5b81600115156002826040518082805190602001908083835b602083106148b55780518252602082019150602081019050602083039250614892565b6001836020036101000a038019825116818451168082178552505050505050905001915050908152602001604051809103902060030160009054906101000a900460ff1615151461496e576040517f08c379a00000000000000000000000000000000000000000000000000000000081526004018080602001828103825260128152602001807f47726f7570206973206e6f74206578697374000000000000000000000000000081525060200191505060405180910390fd5b346002846040518082805190602001908083835b602083106149a55780518252602082019150602081019050602083039250614982565b6001836020036101000a0380198251168184511680821785525050505050509050019150509081526020016040518091039020600201541015614a50576040517f08c379a000000000000000000000000000000000000000000000000000000000815260040180806020018281038252601a8152602001807f5468657265206973206e6f20656e6f7567682062616c616e636500000000000081525060200191505060405180910390fd5b346002846040518082805190602001908083835b60208310614a875780518252602082019150602081019050602083039250614a64565b6001836020036101000a038019825116818451168082178552505050505050905001915050908152602001604051809103902060020160008282540392505081905550346002846040518082805190602001908083835b60208310614b015780518252602082019150602081019050602083039250614ade565b6001836020036101000a038019825116818451168082178552505050505050905001915050908152602001604051809103902060070160003373ffffffffffffffffffffffffffffffffffffffff1673ffffffffffffffffffffffffffffffffffffffff168152602001908152602001600020600082825401925050819055503373ffffffffffffffffffffffffffffffffffffffff166108fc349081150290604051600060405180830381858888f19350505050158015614bc7573d6000803e3d6000fd5b507f2e35ef503c2df7525f8147c0e59421bce400064713f992b10d1092456f6c6d6233346002866040518082805190602001908083835b60208310614c215780518252602082019150602081019050602083039250614bfe565b6001836020036101000a038019825116818451168082178552505050505050905001915050908152602001604051809103902060020154604051808473ffffffffffffffffffffffffffffffffffffffff1673ffffffffffffffffffffffffffffffffffffffff168152602001838152602001828152602001935050505060405180910390a1505050565b6060600080600080866040518082805190602001908083835b60208310614ce85780518252602082019150602081019050602083039250614cc5565b6001836020036101000a03801982511681845116808217855250505050505090500191505090815260200160405180910390208581548110614d2657fe5b90600052602060002090600702016001016000876040518082805190602001908083835b60208310614d6d5780518252602082019150602081019050602083039250614d4a565b6001836020036101000a03801982511681845116808217855250505050505090500191505090815260200160405180910390208681548110614dab57fe5b906000526020600020906007020160030160009054906101000a900473ffffffffffffffffffffffffffffffffffffffff166000886040518082805190602001908083835b60208310614e135780518252602082019150602081019050602083039250614df0565b6001836020036101000a03801982511681845116808217855250505050505090500191505090815260200160405180910390208781548110614e5157fe5b906000526020600020906007020160060160009054906101000a900460ff166000896040518082805190602001908083835b60208310614ea65780518252602082019150602081019050602083039250614e83565b6001836020036101000a03801982511681845116808217855250505050505090500191505090815260200160405180910390208881548110614ee457fe5b906000526020600020906007020160040154838054600181600116156101000203166002900480601f016020809104026020016040519081016040528092919081815260200182805460018160011615610100020316600290048015614f8b5780601f10614f6057610100808354040283529160200191614f8b565b820191906000526020600020905b815481529060010190602001808311614f6e57829003601f168201915b50505050509350935093509350935092959194509250565b614fab615653565b6000836040518082805190602001908083835b60208310614fe15780518252602082019150602081019050602083039250614fbe565b6001836020036101000a0380198251168184511680821785525050505050509050019150509081526020016040518091039020828154811061501f57fe5b90600052602060002090600702016040518060c0016040529081600082018054600181600116156101000203166002900480601f0160208091040260200160405190810160405280929190818152602001828054600181600116156101000203166002900480156150d15780601f106150a6576101008083540402835291602001916150d1565b820191906000526020600020905b8154815290600101906020018083116150b457829003601f168201915b50505050508152602001600182018054600181600116156101000203166002900480601f0160208091040260200160405190810160405280929190818152602001828054600181600116156101000203166002900480156151735780601f1061514857610100808354040283529160200191615173565b820191906000526020600020905b81548152906001019060200180831161515657829003601f168201915b50505050508152602001600282015481526020016003820160009054906101000a900473ffffffffffffffffffffffffffffffffffffffff1673ffffffffffffffffffffffffffffffffffffffff1673ffffffffffffffffffffffffffffffffffffffff168152602001600482015481526020016006820160009054906101000a900460ff16600181111561520457fe5b600181111561520f57fe5b8152505090506001600282600001516040518082805190602001908083835b60208310615251578051825260208201915060208101905060208303925061522e565b6001836020036101000a038019825116818451168082178552505050505050905001915050908152602001604051809103902060060160008673ffffffffffffffffffffffffffffffffffffffff1673ffffffffffffffffffffffffffffffffffffffff16815260200190815260200160002060006101000a81548160ff02191690831515021790555060016002846040518082805190602001908083835b6020831061531357805182526020820191506020810190506020830392506152f0565b6001836020036101000a038019825116818451168082178552505050505050905001915050908152602001604051809103902060040160008282540192505081905550604051806060016040528082600001518152602001826060015173ffffffffffffffffffffffffffffffffffffffff168152602001826020015181525060036000836060015173ffffffffffffffffffffffffffffffffffffffff1673ffffffffffffffffffffffffffffffffffffffff16815260200190815260200160002060008201518160000190805190602001906153f29291906155d3565b5060208201518160010160006101000a81548173ffffffffffffffffffffffffffffffffffffffff021916908373ffffffffffffffffffffffffffffffffffffffff16021790555060408201518160020190805190602001906154569291906155d3565b5090505060016002846040518082805190602001908083835b60208310615492578051825260208201915060208101905060208303925061546f565b6001836020036101000a038019825116818451168082178552505050505050905001915050908152602001604051809103902060060160003373ffffffffffffffffffffffffffffffffffffffff1673ffffffffffffffffffffffffffffffffffffffff16815260200190815260200160002060006101000a81548160ff0219169083151502179055507f81e85c1fc03ee803c33d47b5ad61cc0f4e29de8680a46640ec63bc78b18b892684604051808273ffffffffffffffffffffffffffffffffffffffff1673ffffffffffffffffffffffffffffffffffffffff16815260200191505060405180910390a150505050565b6040518060c0016040528060608152602001600073ffffffffffffffffffffffffffffffffffffffff1681526020016000815260200160001515815260200160008152602001600081525090565b828054600181600116156101000203166002900490600052602060002090601f016020900481019282601f1061561457805160ff1916838001178555615642565b82800160010185558215615642579182015b82811115615641578251825591602001919060010190615626565b5b50905061564f91906156aa565b5090565b6040518060c00160405280606081526020016060815260200160008152602001600073ffffffffffffffffffffffffffffffffffffffff16815260200160008152602001600060018111156156a457fe5b81525090565b6156cc91905b808211156156c85760008160009055506001016156b0565b5090565b9056fe596f752063616e206e6f74206c656176652066726f6d2067726f75702e20596f7520686176652064656274a265627a7a72315820afe5800cecd7b4203586071cf4177da7a4eb024eb371dac5b506fe92d7671bc564736f6c634300050c0032",
  "source": "pragma solidity ^0.5.11;\r\n\r\ncontract lendingBorrowing {\r\n\r\n    enum RequestState {onVoting, resolved}\r\n\r\n    struct Participant {\r\n        string groupNo;\r\n        address memberAddress;\r\n        string nameSurname;\r\n    }\r\n    struct Group {\r\n        string groupId;\r\n        address creator;\r\n        uint groupBalance;\r\n        bool isOpen;\r\n        uint numberOfMember;\r\n        uint requestCount;\r\n        mapping(address => bool) members;\r\n        mapping(address => uint) borrowers;\r\n        mapping(address => uint) lenders;\r\n    }\r\n    struct Request {\r\n        string groupId;\r\n        string nameSurname;\r\n        uint requestCount;\r\n        address candidate;\r\n        uint approvalCount;\r\n        mapping(address => bool) approvals;\r\n        RequestState requestState;\r\n    }\r\n\r\n    /* @notice Two types of request array exist. Because, in front end side, we need to return all requests.\r\n        but in solidity, there is no simple way to return struct array, therefor RequestArray mapping is needed.\r\n    */\r\n    mapping(string => Request[]) private requestsArray;\r\n    mapping(address => Request) private requestsAddressArray;\r\n    mapping(string => Group) public groups;\r\n    mapping(address => Participant) public participants;\r\n    \r\n    /// @notice  Let say this is compound contract address which we will deposit money\r\n    address payable public compoundAddress = 0x877427CCBd3061Affd5c6518bc87799B9Cf3C408;\r\n    event LogCreatedRequest(string _groupId, string _nameSurname, address _participantAddress);\r\n    event LogCreatedGroup(string _groupId, uint numberOfMember, address _creator);\r\n    event LogApprovedRequest(address _approverAddress, uint approvalCount);\r\n    event LogAddedCandidateToGroup(address _memberAddress);\r\n    event LogLendingTransaction(address _memberAddress, uint amountLended, uint groupBalance);\r\n    event LogBorrowingTransaction(address _memberAddress, uint amountBorrowed, uint groupBalance);\r\n    event LogPayDebtedBack(address _memberAddress, uint amountPayedBack, uint remainDebt, uint groupBalance);\r\n    event LogWithdraw(address _memberAddress, uint withdrawedAmount, uint groupBalance);\r\n\r\n    modifier checkGroupOpen(string memory _groupId) {\r\n        require(groups[_groupId].isOpen == true, \"Group is not exist\");\r\n        _;\r\n    }\r\n    \r\n    modifier checkEnrolled(string memory _groupId) {\r\n        require(groups[_groupId].members[msg.sender] == true, \"You are not in this group\");\r\n        _;\r\n    }\r\n    \r\n    /*\r\n    @notice This function create a group with given parameters. First it checks that is there any group\r\n    created with the same name. Because group's name are unique id.\r\n    After group is created, it adds msg.sender to group as a group member.\r\n    \r\n    @params _groupId and nameSurname will be come from front-end\r\n    */\r\n    function createGroup(string memory _groupId, string memory nameSurname)\r\n    public\r\n    {\r\n        // check that is there any group with same name\r\n        require(!groups[_groupId].isOpen,\"group is already created\");\r\n        \r\n        // Create a new group\r\n        Group memory newGroup = Group({groupId: _groupId, creator: msg.sender, groupBalance: 0, isOpen: true, numberOfMember: 1, requestCount: 0});\r\n        groups[_groupId] = newGroup;\r\n        emit LogCreatedGroup(_groupId, groups[_groupId].numberOfMember, groups[_groupId].creator);\r\n\r\n        // add msg.sender to group as a member\r\n        groups[_groupId].members[msg.sender] = true;\r\n        participants[msg.sender] = Participant(_groupId, msg.sender, nameSurname);\r\n    }\r\n    \r\n    /*\r\n    @notice This function allow members to leave from group. But it makes some controlls. \r\n    If a member has debt, this member cannot leave from group.\r\n    If member has not debt, function check that whether member has lendedAmount or not in group. Then if there is, send it to member's address\r\n    */\r\n    function leaveGroup(string memory _groupId)\r\n    public\r\n    checkEnrolled(_groupId)\r\n    checkGroupOpen(_groupId)\r\n    {\r\n        // check that member has no debt\r\n        require(groups[_groupId].borrowers[msg.sender] == 0, \"You can not leave from group. You have debt\");\r\n        \r\n        groups[_groupId].members[msg.sender] = false;\r\n        groups[_groupId].numberOfMember -= 1;\r\n        \r\n        // get the amount member lended\r\n        uint amountLended = groups[_groupId].lenders[msg.sender];\r\n        \r\n        // if lended amount is exist, send back to msg.sender\r\n        if (amountLended > 0) {\r\n            msg.sender.transfer(amountLended);\r\n        }\r\n    }\r\n    \r\n    /*\r\n    @notice This function create a request to enrolling group. This request is created with given parameters.\r\n    @params _groupId and _nameSurname is required parameters for enrolling\r\n    @notice after request is created, voting process is begin.\r\n    */\r\n    function enroll(string memory _groupId, string memory _nameSurname)\r\n    public\r\n    checkGroupOpen(_groupId)\r\n    {\r\n        \r\n        // check is already enrolled to group\r\n        require(groups[_groupId].members[msg.sender] != true, \"You are already in this group\");\r\n        \r\n        // Create Request to enroll\r\n        Request memory newRequest = Request({\r\n            groupId: _groupId,\r\n            nameSurname: _nameSurname,\r\n            candidate: msg.sender,\r\n            approvalCount: 0,\r\n            requestCount: 0,\r\n            requestState: RequestState.onVoting\r\n        });\r\n        requestsArray[_groupId].push(newRequest);\r\n        requestsAddressArray[msg.sender] = newRequest;\r\n        groups[_groupId].requestCount += 1;\r\n        \r\n        emit LogCreatedRequest(_groupId, _nameSurname, msg.sender);\r\n        \r\n    }\r\n    \r\n    /*\r\n    @notice Group's members can approve a request via this function. If 80% of group members voted as yes,\r\n    then this member is added to group via calling and external function\r\n    */\r\n    function approveRequest(address _candidateAddress, string memory _groupId, uint _id)\r\n    public\r\n    {\r\n        // check that request is on voting\r\n        require(requestsAddressArray[_candidateAddress].requestState == RequestState.onVoting, \"Request is resolved\");\r\n        \r\n        Request storage request = requestsAddressArray[_candidateAddress];\r\n        \r\n        // check that this member did not approve\r\n        require(!request.approvals[_candidateAddress]);\r\n        \r\n        request.approvals[msg.sender] == true;\r\n        request.approvalCount += 1;\r\n        requestsArray[_groupId][_id].approvalCount += 1;\r\n        \r\n        // if 80% of members approve that candidate can enroll, then add candidate to group\r\n        if  ((groups[_groupId].numberOfMember * 80) / 100 < request.approvalCount) {\r\n            addCandidateToGroup(_candidateAddress, _groupId, _id);\r\n            request.approvalCount += 1;\r\n            request.requestState = RequestState.resolved;\r\n            requestsArray[_groupId][_id].requestState = RequestState.resolved;\r\n            groups[_groupId].requestCount -= 1;\r\n        }\r\n        \r\n        emit LogApprovedRequest(msg.sender, request.approvalCount);\r\n        \r\n    }\r\n    \r\n    /*\r\n    @notice This function is a private function and it just can call from inside approveRequest function.\r\n    */\r\n    function addCandidateToGroup(address _memberAddress, string memory _groupId, uint _id)\r\n    private\r\n    {\r\n        // adding the participant to group\r\n        Request memory request = requestsArray[_groupId][_id];\r\n        groups[request.groupId].members[_memberAddress] = true;\r\n        groups[_groupId].numberOfMember += 1;\r\n        \r\n        participants[request.candidate] = Participant(request.groupId, request.candidate, request.nameSurname);\r\n        groups[_groupId].members[msg.sender] = true;\r\n        \r\n        emit LogAddedCandidateToGroup(_memberAddress);\r\n        \r\n    }\r\n    \r\n    /*\r\n    @notice This function allow members to lend their money according to lend and deposit rate identified from begin.\r\n    it splits sent money two seperate value.\r\n    For group, it directly write it to group's balance and member lended amount array\r\n    For compound, it write amount to pending array, after that user needs to call depositToCompound function to send money to compound\r\n    */\r\n    function lending(string memory _groupId)\r\n    public\r\n    payable\r\n    checkEnrolled(_groupId)\r\n    checkGroupOpen(_groupId)\r\n    {\r\n        require(msg.value >= 0, \"Please send a valid amount\");\r\n        \r\n        groups[_groupId].lenders[msg.sender] += msg.value;\r\n        \r\n        groups[_groupId].groupBalance += msg.value;\r\n        \r\n        emit LogLendingTransaction(msg.sender, msg.value, groups[_groupId].groupBalance);\r\n        \r\n    }\r\n    \r\n    \r\n    /*\r\n    @notice This function deposit money from pending array to compound. Before doing this,\r\n    it check whether member has money in array or not\r\n    \r\n    function depositToCompound(string memory _groupId)\r\n    public\r\n    payable\r\n    checkEnrolled(_groupId) \r\n    checkGroupOpen(_groupId)\r\n    {\r\n        uint amountForCompound = depositCompoundPending[msg.sender];\r\n        depositCompoundPending[msg.sender] -= amountForCompound;\r\n        groups[_groupId].depositCompoundArray[msg.sender] += amountForCompound;\r\n        \r\n        address(compoundAddress).transfer(amountForCompound);\r\n        \r\n    }\r\n    */\r\n    \r\n    \r\n    /*\r\n    @notice This function allow members to borrow moeny from group.\r\n    First it checks that group has enough balance, then it sends money to member\r\n    */\r\n    function borrowing(string memory _groupId)\r\n    public\r\n    payable\r\n    checkEnrolled(_groupId)\r\n    checkGroupOpen(_groupId)\r\n    {\r\n        // check is there enough amount\r\n        require(groups[_groupId].groupBalance >= msg.value, \"There is no enough balance\");\r\n\r\n        // firstly, substrack group balance \r\n        groups[_groupId].groupBalance -= msg.value;\r\n        \r\n        // add the member to borrowers\r\n        groups[_groupId].borrowers[msg.sender] += msg.value;\r\n        \r\n        // Transfer the value to msg.sender\r\n        address(msg.sender).transfer(msg.value);\r\n        \r\n        emit LogBorrowingTransaction(msg.sender, msg.value, groups[_groupId].groupBalance);\r\n        \r\n    }\r\n    \r\n    /*\r\n    @notice This function allow members to pey their debt back. It behave according to sent value\r\n    If value is lower than debt, it substrack the value from borrower array for msg.sender and add this value to group balance.\r\n    If value is higher than debt, it substrack the value from borrowers array for msg.sender and write the exceeds amount to lenders array for msg.sender\r\n    */\r\n    function payDebtBack(string memory _groupId)\r\n    public\r\n    payable\r\n    checkEnrolled(_groupId)\r\n    checkGroupOpen(_groupId)\r\n    returns(uint)\r\n    {\r\n        uint debt = groups[_groupId].borrowers[msg.sender];\r\n        \r\n        // check member has debt\r\n        require(debt != 0, \"you do not have debt\");\r\n        \r\n        if (msg.value <= debt) {\r\n            // for example:  debt = 100,  amount = 50\r\n            groups[_groupId].groupBalance += msg.value;\r\n            groups[_groupId].borrowers[msg.sender] -= msg.value;\r\n\r\n            debt -= msg.value;\r\n            \r\n            emit LogPayDebtedBack(msg.sender, msg.value, debt, groups[_groupId].groupBalance);\r\n\r\n            return debt;\r\n            \r\n        }else {\r\n            // for example:  debt = 100,  amount = 150\r\n        \r\n            groups[_groupId].groupBalance += msg.value;\r\n            groups[_groupId].borrowers[msg.sender] = 0;\r\n            \r\n            // make debt of this member 0\r\n            debt = 0;\r\n            \r\n            // lend amount exceed the debt to group\r\n            groups[_groupId].lenders[msg.sender] += msg.value - debt;\r\n            \r\n            emit LogPayDebtedBack(msg.sender, msg.value, debt, groups[_groupId].groupBalance);\r\n            \r\n            return debt;\r\n        }\r\n        \r\n    }\r\n    \r\n    /*\r\n    @notice This function allow members to withdraw all amount lended.\r\n    */\r\n    function withdraw(string memory _groupId)\r\n    public\r\n    payable\r\n    checkEnrolled(_groupId)\r\n    checkGroupOpen(_groupId)\r\n    returns(uint)\r\n    {\r\n        uint debt = groups[_groupId].borrowers[msg.sender];\r\n        // check member has debt\r\n        require(debt == 0, \"you have debt\");\r\n\r\n        uint lendedAmount = groups[_groupId].lenders[msg.sender];\r\n        require(lendedAmount != 0, \"You do not have lended money\");\r\n        require(groups[_groupId].groupBalance >= msg.value, \"There is no enough balance\");\r\n        \r\n        groups[_groupId].lenders[msg.sender] -= msg.value;\r\n        groups[_groupId].groupBalance -= msg.value;\r\n        \r\n        msg.sender.transfer(msg.value);\r\n        \r\n        emit LogWithdraw(msg.sender, msg.value, groups[_groupId].groupBalance);\r\n        \r\n        return lendedAmount;\r\n    }\r\n    \r\n    \r\n    function checkParticipant(string memory _groupId)\r\n    public \r\n    view \r\n    checkGroupOpen(_groupId)\r\n    returns(bool) \r\n    {\r\n        return groups[_groupId].members[msg.sender];\r\n    }\r\n    \r\n    function checkGroupBalance(string memory _groupId)\r\n    public \r\n    view \r\n    checkGroupOpen(_groupId)\r\n    returns(uint) \r\n    {\r\n        return groups[_groupId].groupBalance;\r\n    }\r\n\r\n    function checkGroup(string memory _groupId)\r\n    public \r\n    view\r\n    returns(string memory) \r\n    {\r\n        return groups[_groupId].groupId;\r\n    }\r\n    \r\n    function checkMemberDebtStatus(string memory _groupId)\r\n    public \r\n    view \r\n    checkGroupOpen(_groupId)\r\n    returns(uint, uint) \r\n    {\r\n        return (uint(groups[_groupId].borrowers[msg.sender]), uint(groups[_groupId].lenders[msg.sender]));\r\n    }\r\n\r\n    function getRequest(string memory _groupId, uint _id) \r\n    public \r\n    view \r\n    returns(string memory, address, RequestState, uint) {\r\n        return (requestsArray[_groupId][_id].nameSurname, requestsArray[_groupId][_id].candidate, requestsArray[_groupId][_id].requestState, requestsArray[_groupId][_id].approvalCount);\r\n    }\r\n    \r\n    function getRequestArrayLength(string memory _groupId) \r\n    public \r\n    view \r\n    returns(uint) {\r\n        return (requestsArray[_groupId].length);\r\n    }\r\n    \r\n    /*\r\n    function getDepositPending(address _memberAddress) \r\n    public \r\n    view \r\n    returns(uint) {\r\n        return (depositCompoundPending[_memberAddress]);\r\n    }\r\n    */\r\n    \r\n}",
  "sourcePath": "/mnt/c/users/shahida/downloads/cryptolendborrowgroup/contracts/lendingborrowing.sol",
  "compiler": {
    "name": "solc",
    "version": "0.5.12+commit.7709ece9.Emscripten.clang"
  },
  "schemaVersion": "3.0.23",
  "updatedAt": "2020-02-04T19:10:18.035Z",
  "networkType": "ethereum",
  "devdoc": {
    "methods": {}
  },
  "userdoc": {
    "methods": {}
  }
}